{
  "_format": "hh-sol-artifact-1",
  "contractName": "BlockheadCoin",
  "sourceName": "contracts/BlockHeadCoin.sol",
  "abi": [
    {
      "inputs": [],
      "stateMutability": "nonpayable",
      "type": "constructor"
    },
    {
      "anonymous": false,
      "inputs": [
        {
          "indexed": false,
          "internalType": "address",
          "name": "previousAdmin",
          "type": "address"
        },
        {
          "indexed": false,
          "internalType": "address",
          "name": "newAdmin",
          "type": "address"
        }
      ],
      "name": "AdminChanged",
      "type": "event"
    },
    {
      "anonymous": false,
      "inputs": [
        {
          "indexed": true,
          "internalType": "address",
          "name": "owner",
          "type": "address"
        },
        {
          "indexed": true,
          "internalType": "address",
          "name": "spender",
          "type": "address"
        },
        {
          "indexed": false,
          "internalType": "uint256",
          "name": "value",
          "type": "uint256"
        }
      ],
      "name": "Approval",
      "type": "event"
    },
    {
      "anonymous": false,
      "inputs": [
        {
          "indexed": true,
          "internalType": "address",
          "name": "beacon",
          "type": "address"
        }
      ],
      "name": "BeaconUpgraded",
      "type": "event"
    },
    {
      "anonymous": false,
      "inputs": [
        {
          "indexed": false,
          "internalType": "address",
          "name": "account",
          "type": "address"
        }
      ],
      "name": "Paused",
      "type": "event"
    },
    {
      "anonymous": false,
      "inputs": [
        {
          "indexed": true,
          "internalType": "bytes32",
          "name": "role",
          "type": "bytes32"
        },
        {
          "indexed": true,
          "internalType": "bytes32",
          "name": "previousAdminRole",
          "type": "bytes32"
        },
        {
          "indexed": true,
          "internalType": "bytes32",
          "name": "newAdminRole",
          "type": "bytes32"
        }
      ],
      "name": "RoleAdminChanged",
      "type": "event"
    },
    {
      "anonymous": false,
      "inputs": [
        {
          "indexed": true,
          "internalType": "bytes32",
          "name": "role",
          "type": "bytes32"
        },
        {
          "indexed": true,
          "internalType": "address",
          "name": "account",
          "type": "address"
        },
        {
          "indexed": true,
          "internalType": "address",
          "name": "sender",
          "type": "address"
        }
      ],
      "name": "RoleGranted",
      "type": "event"
    },
    {
      "anonymous": false,
      "inputs": [
        {
          "indexed": true,
          "internalType": "bytes32",
          "name": "role",
          "type": "bytes32"
        },
        {
          "indexed": true,
          "internalType": "address",
          "name": "account",
          "type": "address"
        },
        {
          "indexed": true,
          "internalType": "address",
          "name": "sender",
          "type": "address"
        }
      ],
      "name": "RoleRevoked",
      "type": "event"
    },
    {
      "anonymous": false,
      "inputs": [
        {
          "indexed": true,
          "internalType": "address",
          "name": "from",
          "type": "address"
        },
        {
          "indexed": true,
          "internalType": "address",
          "name": "to",
          "type": "address"
        },
        {
          "indexed": false,
          "internalType": "uint256",
          "name": "value",
          "type": "uint256"
        }
      ],
      "name": "Transfer",
      "type": "event"
    },
    {
      "anonymous": false,
      "inputs": [
        {
          "indexed": false,
          "internalType": "address",
          "name": "account",
          "type": "address"
        }
      ],
      "name": "Unpaused",
      "type": "event"
    },
    {
      "anonymous": false,
      "inputs": [
        {
          "indexed": true,
          "internalType": "address",
          "name": "implementation",
          "type": "address"
        }
      ],
      "name": "Upgraded",
      "type": "event"
    },
    {
      "inputs": [],
      "name": "DEFAULT_ADMIN_ROLE",
      "outputs": [
        {
          "internalType": "bytes32",
          "name": "",
          "type": "bytes32"
        }
      ],
      "stateMutability": "view",
      "type": "function"
    },
    {
      "inputs": [],
      "name": "MINTER_ROLE",
      "outputs": [
        {
          "internalType": "bytes32",
          "name": "",
          "type": "bytes32"
        }
      ],
      "stateMutability": "view",
      "type": "function"
    },
    {
      "inputs": [],
      "name": "PAUSER_ROLE",
      "outputs": [
        {
          "internalType": "bytes32",
          "name": "",
          "type": "bytes32"
        }
      ],
      "stateMutability": "view",
      "type": "function"
    },
    {
      "inputs": [],
      "name": "UPGRADER_ROLE",
      "outputs": [
        {
          "internalType": "bytes32",
          "name": "",
          "type": "bytes32"
        }
      ],
      "stateMutability": "view",
      "type": "function"
    },
    {
      "inputs": [
        {
          "internalType": "address",
          "name": "owner",
          "type": "address"
        },
        {
          "internalType": "address",
          "name": "spender",
          "type": "address"
        }
      ],
      "name": "allowance",
      "outputs": [
        {
          "internalType": "uint256",
          "name": "",
          "type": "uint256"
        }
      ],
      "stateMutability": "view",
      "type": "function"
    },
    {
      "inputs": [
        {
          "internalType": "address",
          "name": "spender",
          "type": "address"
        },
        {
          "internalType": "uint256",
          "name": "amount",
          "type": "uint256"
        }
      ],
      "name": "approve",
      "outputs": [
        {
          "internalType": "bool",
          "name": "",
          "type": "bool"
        }
      ],
      "stateMutability": "nonpayable",
      "type": "function"
    },
    {
      "inputs": [
        {
          "internalType": "address",
          "name": "account",
          "type": "address"
        }
      ],
      "name": "balanceOf",
      "outputs": [
        {
          "internalType": "uint256",
          "name": "",
          "type": "uint256"
        }
      ],
      "stateMutability": "view",
      "type": "function"
    },
    {
      "inputs": [
        {
          "internalType": "uint256",
          "name": "amount",
          "type": "uint256"
        }
      ],
      "name": "burn",
      "outputs": [],
      "stateMutability": "nonpayable",
      "type": "function"
    },
    {
      "inputs": [
        {
          "internalType": "address",
          "name": "account",
          "type": "address"
        },
        {
          "internalType": "uint256",
          "name": "amount",
          "type": "uint256"
        }
      ],
      "name": "burnFrom",
      "outputs": [],
      "stateMutability": "nonpayable",
      "type": "function"
    },
    {
      "inputs": [],
      "name": "decimals",
      "outputs": [
        {
          "internalType": "uint8",
          "name": "",
          "type": "uint8"
        }
      ],
      "stateMutability": "view",
      "type": "function"
    },
    {
      "inputs": [
        {
          "internalType": "address",
          "name": "spender",
          "type": "address"
        },
        {
          "internalType": "uint256",
          "name": "subtractedValue",
          "type": "uint256"
        }
      ],
      "name": "decreaseAllowance",
      "outputs": [
        {
          "internalType": "bool",
          "name": "",
          "type": "bool"
        }
      ],
      "stateMutability": "nonpayable",
      "type": "function"
    },
    {
      "inputs": [
        {
          "internalType": "bytes32",
          "name": "role",
          "type": "bytes32"
        }
      ],
      "name": "getRoleAdmin",
      "outputs": [
        {
          "internalType": "bytes32",
          "name": "",
          "type": "bytes32"
        }
      ],
      "stateMutability": "view",
      "type": "function"
    },
    {
      "inputs": [
        {
          "internalType": "bytes32",
          "name": "role",
          "type": "bytes32"
        },
        {
          "internalType": "address",
          "name": "account",
          "type": "address"
        }
      ],
      "name": "grantRole",
      "outputs": [],
      "stateMutability": "nonpayable",
      "type": "function"
    },
    {
      "inputs": [
        {
          "internalType": "bytes32",
          "name": "role",
          "type": "bytes32"
        },
        {
          "internalType": "address",
          "name": "account",
          "type": "address"
        }
      ],
      "name": "hasRole",
      "outputs": [
        {
          "internalType": "bool",
          "name": "",
          "type": "bool"
        }
      ],
      "stateMutability": "view",
      "type": "function"
    },
    {
      "inputs": [
        {
          "internalType": "address",
          "name": "spender",
          "type": "address"
        },
        {
          "internalType": "uint256",
          "name": "addedValue",
          "type": "uint256"
        }
      ],
      "name": "increaseAllowance",
      "outputs": [
        {
          "internalType": "bool",
          "name": "",
          "type": "bool"
        }
      ],
      "stateMutability": "nonpayable",
      "type": "function"
    },
    {
      "inputs": [],
      "name": "initialize",
      "outputs": [],
      "stateMutability": "nonpayable",
      "type": "function"
    },
    {
      "inputs": [
        {
          "internalType": "address",
          "name": "to",
          "type": "address"
        },
        {
          "internalType": "uint256",
          "name": "amount",
          "type": "uint256"
        }
      ],
      "name": "mint",
      "outputs": [],
      "stateMutability": "nonpayable",
      "type": "function"
    },
    {
      "inputs": [],
      "name": "name",
      "outputs": [
        {
          "internalType": "string",
          "name": "",
          "type": "string"
        }
      ],
      "stateMutability": "view",
      "type": "function"
    },
    {
      "inputs": [],
      "name": "pause",
      "outputs": [],
      "stateMutability": "nonpayable",
      "type": "function"
    },
    {
      "inputs": [],
      "name": "paused",
      "outputs": [
        {
          "internalType": "bool",
          "name": "",
          "type": "bool"
        }
      ],
      "stateMutability": "view",
      "type": "function"
    },
    {
      "inputs": [],
      "name": "proxiableUUID",
      "outputs": [
        {
          "internalType": "bytes32",
          "name": "",
          "type": "bytes32"
        }
      ],
      "stateMutability": "view",
      "type": "function"
    },
    {
      "inputs": [
        {
          "internalType": "bytes32",
          "name": "role",
          "type": "bytes32"
        },
        {
          "internalType": "address",
          "name": "account",
          "type": "address"
        }
      ],
      "name": "renounceRole",
      "outputs": [],
      "stateMutability": "nonpayable",
      "type": "function"
    },
    {
      "inputs": [
        {
          "internalType": "bytes32",
          "name": "role",
          "type": "bytes32"
        },
        {
          "internalType": "address",
          "name": "account",
          "type": "address"
        }
      ],
      "name": "revokeRole",
      "outputs": [],
      "stateMutability": "nonpayable",
      "type": "function"
    },
    {
      "inputs": [
        {
          "internalType": "bytes4",
          "name": "interfaceId",
          "type": "bytes4"
        }
      ],
      "name": "supportsInterface",
      "outputs": [
        {
          "internalType": "bool",
          "name": "",
          "type": "bool"
        }
      ],
      "stateMutability": "view",
      "type": "function"
    },
    {
      "inputs": [],
      "name": "symbol",
      "outputs": [
        {
          "internalType": "string",
          "name": "",
          "type": "string"
        }
      ],
      "stateMutability": "view",
      "type": "function"
    },
    {
      "inputs": [],
      "name": "totalSupply",
      "outputs": [
        {
          "internalType": "uint256",
          "name": "",
          "type": "uint256"
        }
      ],
      "stateMutability": "view",
      "type": "function"
    },
    {
      "inputs": [
        {
          "internalType": "address",
          "name": "to",
          "type": "address"
        },
        {
          "internalType": "uint256",
          "name": "amount",
          "type": "uint256"
        }
      ],
      "name": "transfer",
      "outputs": [
        {
          "internalType": "bool",
          "name": "",
          "type": "bool"
        }
      ],
      "stateMutability": "nonpayable",
      "type": "function"
    },
    {
      "inputs": [
        {
          "internalType": "address",
          "name": "from",
          "type": "address"
        },
        {
          "internalType": "address",
          "name": "to",
          "type": "address"
        },
        {
          "internalType": "uint256",
          "name": "amount",
          "type": "uint256"
        }
      ],
      "name": "transferFrom",
      "outputs": [
        {
          "internalType": "bool",
          "name": "",
          "type": "bool"
        }
      ],
      "stateMutability": "nonpayable",
      "type": "function"
    },
    {
      "inputs": [],
      "name": "unpause",
      "outputs": [],
      "stateMutability": "nonpayable",
      "type": "function"
    },
    {
      "inputs": [
        {
          "internalType": "address",
          "name": "newImplementation",
          "type": "address"
        }
      ],
      "name": "upgradeTo",
      "outputs": [],
      "stateMutability": "nonpayable",
      "type": "function"
    },
    {
      "inputs": [
        {
          "internalType": "address",
          "name": "newImplementation",
          "type": "address"
        },
        {
          "internalType": "bytes",
          "name": "data",
          "type": "bytes"
        }
      ],
      "name": "upgradeToAndCall",
      "outputs": [],
      "stateMutability": "payable",
      "type": "function"
    }
  ],
  "bytecode": "0x60a06040523073ffffffffffffffffffffffffffffffffffffffff1660809073ffffffffffffffffffffffffffffffffffffffff1660601b8152503480156200004757600080fd5b50600060019054906101000a900460ff16620000725760008054906101000a900460ff161562000083565b620000826200013f60201b60201c565b5b620000c5576040517f08c379a0000000000000000000000000000000000000000000000000000000008152600401620000bc90620001a7565b60405180910390fd5b60008060019054906101000a900460ff16159050801562000116576001600060016101000a81548160ff02191690831515021790555060016000806101000a81548160ff0219169083151502179055505b8015620001385760008060016101000a81548160ff0219169083151502179055505b5062000229565b600062000157306200015d60201b620014781760201c565b15905090565b6000808273ffffffffffffffffffffffffffffffffffffffff163b119050919050565b60006200018f602e83620001c9565b91506200019c82620001da565b604082019050919050565b60006020820190508181036000830152620001c28162000180565b9050919050565b600082825260208201905092915050565b7f496e697469616c697a61626c653a20636f6e747261637420697320616c72656160008201527f647920696e697469616c697a6564000000000000000000000000000000000000602082015250565b60805160601c6141ff62000264600039600081816109ac01528181610a3b01528181610c9701528181610d260152610dd601526141ff6000f3fe6080604052600436106101d85760003560e01c806352d1902d11610102578063a217fddf11610095578063d547741f11610064578063d547741f146106b1578063dd62ed3e146106da578063e63ab1e914610717578063f72c0d8b14610742576101d8565b8063a217fddf146105e1578063a457c2d71461060c578063a9059cbb14610649578063d539139314610686576101d8565b80638129fc1c116100d15780638129fc1c1461054b5780638456cb591461056257806391d148541461057957806395d89b41146105b6576101d8565b806352d1902d1461048f5780635c975abb146104ba57806370a08231146104e557806379cc679014610522576101d8565b8063313ce5671161017a5780633f4ba83a116101495780633f4ba83a1461040a57806340c10f191461042157806342966c681461044a5780634f1ef28614610473576101d8565b8063313ce5671461035057806336568abe1461037b5780633659cfe6146103a457806339509351146103cd576101d8565b806318160ddd116101b657806318160ddd1461028257806323b872dd146102ad578063248a9ca3146102ea5780632f2ff15d14610327576101d8565b806301ffc9a7146101dd57806306fdde031461021a578063095ea7b314610245575b600080fd5b3480156101e957600080fd5b5061020460048036038101906101ff9190612ead565b61076d565b60405161021191906133bc565b60405180910390f35b34801561022657600080fd5b5061022f6107e7565b60405161023c91906133f2565b60405180910390f35b34801561025157600080fd5b5061026c60048036038101906102679190612de3565b610879565b60405161027991906133bc565b60405180910390f35b34801561028e57600080fd5b5061029761089c565b6040516102a491906136f4565b60405180910390f35b3480156102b957600080fd5b506102d460048036038101906102cf9190612d40565b6108a6565b6040516102e191906133bc565b60405180910390f35b3480156102f657600080fd5b50610311600480360381019061030c9190612e1f565b6108d5565b60405161031e91906133d7565b60405180910390f35b34801561033357600080fd5b5061034e60048036038101906103499190612e71565b6108f5565b005b34801561035c57600080fd5b5061036561091e565b604051610372919061370f565b60405180910390f35b34801561038757600080fd5b506103a2600480360381019061039d9190612e71565b610927565b005b3480156103b057600080fd5b506103cb60048036038101906103c69190612cdb565b6109aa565b005b3480156103d957600080fd5b506103f460048036038101906103ef9190612de3565b610b59565b60405161040191906133bc565b60405180910390f35b34801561041657600080fd5b5061041f610c03565b005b34801561042d57600080fd5b5061044860048036038101906104439190612de3565b610c40565b005b34801561045657600080fd5b50610471600480360381019061046c9190612ed6565b610c81565b005b61048d60048036038101906104889190612d8f565b610c95565b005b34801561049b57600080fd5b506104a4610dd2565b6040516104b191906133d7565b60405180910390f35b3480156104c657600080fd5b506104cf610e8b565b6040516104dc91906133bc565b60405180910390f35b3480156104f157600080fd5b5061050c60048036038101906105079190612cdb565b610ea2565b60405161051991906136f4565b60405180910390f35b34801561052e57600080fd5b5061054960048036038101906105449190612de3565b610eeb565b005b34801561055757600080fd5b50610560610f0b565b005b34801561056e57600080fd5b5061057761110e565b005b34801561058557600080fd5b506105a0600480360381019061059b9190612e71565b61114b565b6040516105ad91906133bc565b60405180910390f35b3480156105c257600080fd5b506105cb6111b6565b6040516105d891906133f2565b60405180910390f35b3480156105ed57600080fd5b506105f6611248565b60405161060391906133d7565b60405180910390f35b34801561061857600080fd5b50610633600480360381019061062e9190612de3565b61124f565b60405161064091906133bc565b60405180910390f35b34801561065557600080fd5b50610670600480360381019061066b9190612de3565b611339565b60405161067d91906133bc565b60405180910390f35b34801561069257600080fd5b5061069b61135c565b6040516106a891906133d7565b60405180910390f35b3480156106bd57600080fd5b506106d860048036038101906106d39190612e71565b611380565b005b3480156106e657600080fd5b5061070160048036038101906106fc9190612d04565b6113a9565b60405161070e91906136f4565b60405180910390f35b34801561072357600080fd5b5061072c611430565b60405161073991906133d7565b60405180910390f35b34801561074e57600080fd5b50610757611454565b60405161076491906133d7565b60405180910390f35b60007f7965db0b000000000000000000000000000000000000000000000000000000007bffffffffffffffffffffffffffffffffffffffffffffffffffffffff1916827bffffffffffffffffffffffffffffffffffffffffffffffffffffffff191614806107e057506107df8261149b565b5b9050919050565b6060603680546107f690613998565b80601f016020809104026020016040519081016040528092919081815260200182805461082290613998565b801561086f5780601f106108445761010080835404028352916020019161086f565b820191906000526020600020905b81548152906001019060200180831161085257829003601f168201915b5050505050905090565b600080610884611505565b905061089181858561150d565b600191505092915050565b6000603554905090565b6000806108b1611505565b90506108be8582856116d8565b6108c9858585611764565b60019150509392505050565b600060fb6000838152602001908152602001600020600101549050919050565b6108fe826108d5565b61090f8161090a611505565b6119e8565b6109198383611a85565b505050565b60006012905090565b61092f611505565b73ffffffffffffffffffffffffffffffffffffffff168173ffffffffffffffffffffffffffffffffffffffff161461099c576040517f08c379a0000000000000000000000000000000000000000000000000000000008152600401610993906136b4565b60405180910390fd5b6109a68282611b66565b5050565b7f000000000000000000000000000000000000000000000000000000000000000073ffffffffffffffffffffffffffffffffffffffff163073ffffffffffffffffffffffffffffffffffffffff161415610a39576040517f08c379a0000000000000000000000000000000000000000000000000000000008152600401610a30906134b4565b60405180910390fd5b7f000000000000000000000000000000000000000000000000000000000000000073ffffffffffffffffffffffffffffffffffffffff16610a78611c48565b73ffffffffffffffffffffffffffffffffffffffff1614610ace576040517f08c379a0000000000000000000000000000000000000000000000000000000008152600401610ac590613514565b60405180910390fd5b610ad781611c9f565b610b5681600067ffffffffffffffff811115610b1c577f4e487b7100000000000000000000000000000000000000000000000000000000600052604160045260246000fd5b6040519080825280601f01601f191660200182016040528015610b4e5781602001600182028036833780820191505090505b506000611cd5565b50565b600080610b64611505565b9050610bf8818585603460008673ffffffffffffffffffffffffffffffffffffffff1673ffffffffffffffffffffffffffffffffffffffff16815260200190815260200160002060008973ffffffffffffffffffffffffffffffffffffffff1673ffffffffffffffffffffffffffffffffffffffff16815260200190815260200160002054610bf391906137bd565b61150d565b600191505092915050565b7f65d7a28e3265b37a6474929f336521b332c1681b933f6cb9f3376673440d862a610c3581610c30611505565b6119e8565b610c3d611e52565b50565b7f9f2df0fed2c77648de5860a4cc508cd0818c85b8b8a1ab4ceeef8d981c8956a6610c7281610c6d611505565b6119e8565b610c7c8383611ef4565b505050565b610c92610c8c611505565b82612055565b50565b7f000000000000000000000000000000000000000000000000000000000000000073ffffffffffffffffffffffffffffffffffffffff163073ffffffffffffffffffffffffffffffffffffffff161415610d24576040517f08c379a0000000000000000000000000000000000000000000000000000000008152600401610d1b906134b4565b60405180910390fd5b7f000000000000000000000000000000000000000000000000000000000000000073ffffffffffffffffffffffffffffffffffffffff16610d63611c48565b73ffffffffffffffffffffffffffffffffffffffff1614610db9576040517f08c379a0000000000000000000000000000000000000000000000000000000008152600401610db090613514565b60405180910390fd5b610dc282611c9f565b610dce82826001611cd5565b5050565b60007f000000000000000000000000000000000000000000000000000000000000000073ffffffffffffffffffffffffffffffffffffffff163073ffffffffffffffffffffffffffffffffffffffff1614610e62576040517f08c379a0000000000000000000000000000000000000000000000000000000008152600401610e5990613534565b60405180910390fd5b7f360894a13ba1a3210667c828492db98dca3e2076cc3735a920a3ca505d382bbc60001b905090565b6000609760009054906101000a900460ff16905090565b6000603360008373ffffffffffffffffffffffffffffffffffffffff1673ffffffffffffffffffffffffffffffffffffffff168152602001908152602001600020549050919050565b610efd82610ef7611505565b836116d8565b610f078282612055565b5050565b600060019054906101000a900460ff16610f335760008054906101000a900460ff1615610f3c565b610f3b61222e565b5b610f7b576040517f08c379a0000000000000000000000000000000000000000000000000000000008152600401610f7290613594565b60405180910390fd5b60008060019054906101000a900460ff161590508015610fcb576001600060016101000a81548160ff02191690831515021790555060016000806101000a81548160ff0219169083151502179055505b61103f6040518060400160405280600d81526020017f426c6f636b68656164436f696e000000000000000000000000000000000000008152506040518060400160405280600381526020017f424843000000000000000000000000000000000000000000000000000000000081525061223f565b61104761229c565b61104f6122ed565b611057612346565b61105f612397565b61106c6000801b33611a85565b6110967f65d7a28e3265b37a6474929f336521b332c1681b933f6cb9f3376673440d862a33611a85565b6110c07f9f2df0fed2c77648de5860a4cc508cd0818c85b8b8a1ab4ceeef8d981c8956a633611a85565b6110ea7f189ab7a9244df0848122154315af71fe140f3db0fe014031783b0946b8c9d2e333611a85565b801561110b5760008060016101000a81548160ff0219169083151502179055505b50565b7f65d7a28e3265b37a6474929f336521b332c1681b933f6cb9f3376673440d862a6111408161113b611505565b6119e8565b6111486123e8565b50565b600060fb600084815260200190815260200160002060000160008373ffffffffffffffffffffffffffffffffffffffff1673ffffffffffffffffffffffffffffffffffffffff16815260200190815260200160002060009054906101000a900460ff16905092915050565b6060603780546111c590613998565b80601f01602080910402602001604051908101604052809291908181526020018280546111f190613998565b801561123e5780601f106112135761010080835404028352916020019161123e565b820191906000526020600020905b81548152906001019060200180831161122157829003601f168201915b5050505050905090565b6000801b81565b60008061125a611505565b90506000603460008373ffffffffffffffffffffffffffffffffffffffff1673ffffffffffffffffffffffffffffffffffffffff16815260200190815260200160002060008673ffffffffffffffffffffffffffffffffffffffff1673ffffffffffffffffffffffffffffffffffffffff16815260200190815260200160002054905083811015611320576040517f08c379a000000000000000000000000000000000000000000000000000000000815260040161131790613694565b60405180910390fd5b61132d828686840361150d565b60019250505092915050565b600080611344611505565b9050611351818585611764565b600191505092915050565b7f9f2df0fed2c77648de5860a4cc508cd0818c85b8b8a1ab4ceeef8d981c8956a681565b611389826108d5565b61139a81611395611505565b6119e8565b6113a48383611b66565b505050565b6000603460008473ffffffffffffffffffffffffffffffffffffffff1673ffffffffffffffffffffffffffffffffffffffff16815260200190815260200160002060008373ffffffffffffffffffffffffffffffffffffffff1673ffffffffffffffffffffffffffffffffffffffff16815260200190815260200160002054905092915050565b7f65d7a28e3265b37a6474929f336521b332c1681b933f6cb9f3376673440d862a81565b7f189ab7a9244df0848122154315af71fe140f3db0fe014031783b0946b8c9d2e381565b6000808273ffffffffffffffffffffffffffffffffffffffff163b119050919050565b60007f01ffc9a7000000000000000000000000000000000000000000000000000000007bffffffffffffffffffffffffffffffffffffffffffffffffffffffff1916827bffffffffffffffffffffffffffffffffffffffffffffffffffffffff1916149050919050565b600033905090565b600073ffffffffffffffffffffffffffffffffffffffff168373ffffffffffffffffffffffffffffffffffffffff16141561157d576040517f08c379a000000000000000000000000000000000000000000000000000000000815260040161157490613654565b60405180910390fd5b600073ffffffffffffffffffffffffffffffffffffffff168273ffffffffffffffffffffffffffffffffffffffff1614156115ed576040517f08c379a00000000000000000000000000000000000000000000000000000000081526004016115e490613494565b60405180910390fd5b80603460008573ffffffffffffffffffffffffffffffffffffffff1673ffffffffffffffffffffffffffffffffffffffff16815260200190815260200160002060008473ffffffffffffffffffffffffffffffffffffffff1673ffffffffffffffffffffffffffffffffffffffff168152602001908152602001600020819055508173ffffffffffffffffffffffffffffffffffffffff168373ffffffffffffffffffffffffffffffffffffffff167f8c5be1e5ebec7d5bd14f71427d1e84f3dd0314c0f7b2291e5b200ac8c7c3b925836040516116cb91906136f4565b60405180910390a3505050565b60006116e484846113a9565b90507fffffffffffffffffffffffffffffffffffffffffffffffffffffffffffffffff811461175e5781811015611750576040517f08c379a0000000000000000000000000000000000000000000000000000000008152600401611747906134d4565b60405180910390fd5b61175d848484840361150d565b5b50505050565b600073ffffffffffffffffffffffffffffffffffffffff168373ffffffffffffffffffffffffffffffffffffffff1614156117d4576040517f08c379a00000000000000000000000000000000000000000000000000000000081526004016117cb90613634565b60405180910390fd5b600073ffffffffffffffffffffffffffffffffffffffff168273ffffffffffffffffffffffffffffffffffffffff161415611844576040517f08c379a000000000000000000000000000000000000000000000000000000000815260040161183b90613434565b60405180910390fd5b61184f83838361248b565b6000603360008573ffffffffffffffffffffffffffffffffffffffff1673ffffffffffffffffffffffffffffffffffffffff168152602001908152602001600020549050818110156118d6576040517f08c379a00000000000000000000000000000000000000000000000000000000081526004016118cd906134f4565b60405180910390fd5b818103603360008673ffffffffffffffffffffffffffffffffffffffff1673ffffffffffffffffffffffffffffffffffffffff1681526020019081526020016000208190555081603360008573ffffffffffffffffffffffffffffffffffffffff1673ffffffffffffffffffffffffffffffffffffffff168152602001908152602001600020600082825461196b91906137bd565b925050819055508273ffffffffffffffffffffffffffffffffffffffff168473ffffffffffffffffffffffffffffffffffffffff167fddf252ad1be2c89b69c2b068fc378daa952ba7f163c4a11628f55a4df523b3ef846040516119cf91906136f4565b60405180910390a36119e28484846124e3565b50505050565b6119f2828261114b565b611a8157611a178173ffffffffffffffffffffffffffffffffffffffff1660146124e8565b611a258360001c60206124e8565b604051602001611a36929190613367565b6040516020818303038152906040526040517f08c379a0000000000000000000000000000000000000000000000000000000008152600401611a7891906133f2565b60405180910390fd5b5050565b611a8f828261114b565b611b6257600160fb600084815260200190815260200160002060000160008373ffffffffffffffffffffffffffffffffffffffff1673ffffffffffffffffffffffffffffffffffffffff16815260200190815260200160002060006101000a81548160ff021916908315150217905550611b07611505565b73ffffffffffffffffffffffffffffffffffffffff168173ffffffffffffffffffffffffffffffffffffffff16837f2f8788117e7eff1d82e926ec794901d17c78024a50270940304540a733656f0d60405160405180910390a45b5050565b611b70828261114b565b15611c4457600060fb600084815260200190815260200160002060000160008373ffffffffffffffffffffffffffffffffffffffff1673ffffffffffffffffffffffffffffffffffffffff16815260200190815260200160002060006101000a81548160ff021916908315150217905550611be9611505565b73ffffffffffffffffffffffffffffffffffffffff168173ffffffffffffffffffffffffffffffffffffffff16837ff6391f5c32d9c69d2a47ea670b442974b53935d1edc7fd64eb21e047a839171b60405160405180910390a45b5050565b6000611c767f360894a13ba1a3210667c828492db98dca3e2076cc3735a920a3ca505d382bbc60001b6127e2565b60000160009054906101000a900473ffffffffffffffffffffffffffffffffffffffff16905090565b7f189ab7a9244df0848122154315af71fe140f3db0fe014031783b0946b8c9d2e3611cd181611ccc611505565b6119e8565b5050565b611d017f4910fdfa16fed3260ed0e7147f7cc6da11a60208b5b9406d12a635614ffd914360001b6127ec565b60000160009054906101000a900460ff1615611d2557611d20836127f6565b611e4d565b8273ffffffffffffffffffffffffffffffffffffffff166352d1902d6040518163ffffffff1660e01b815260040160206040518083038186803b158015611d6b57600080fd5b505afa925050508015611d9c57506040513d601f19601f82011682018060405250810190611d999190612e48565b60015b611ddb576040517f08c379a0000000000000000000000000000000000000000000000000000000008152600401611dd2906135b4565b60405180910390fd5b7f360894a13ba1a3210667c828492db98dca3e2076cc3735a920a3ca505d382bbc60001b8114611e40576040517f08c379a0000000000000000000000000000000000000000000000000000000008152600401611e3790613574565b60405180910390fd5b50611e4c8383836128af565b5b505050565b611e5a610e8b565b611e99576040517f08c379a0000000000000000000000000000000000000000000000000000000008152600401611e9090613454565b60405180910390fd5b6000609760006101000a81548160ff0219169083151502179055507f5db9ee0a495bf2e6ff9c91a7834c1ba4fdd244a5e8aa4e537bd38aeae4b073aa611edd611505565b604051611eea91906133a1565b60405180910390a1565b600073ffffffffffffffffffffffffffffffffffffffff168273ffffffffffffffffffffffffffffffffffffffff161415611f64576040517f08c379a0000000000000000000000000000000000000000000000000000000008152600401611f5b906136d4565b60405180910390fd5b611f706000838361248b565b8060356000828254611f8291906137bd565b9250508190555080603360008473ffffffffffffffffffffffffffffffffffffffff1673ffffffffffffffffffffffffffffffffffffffff1681526020019081526020016000206000828254611fd891906137bd565b925050819055508173ffffffffffffffffffffffffffffffffffffffff16600073ffffffffffffffffffffffffffffffffffffffff167fddf252ad1be2c89b69c2b068fc378daa952ba7f163c4a11628f55a4df523b3ef8360405161203d91906136f4565b60405180910390a3612051600083836124e3565b5050565b600073ffffffffffffffffffffffffffffffffffffffff168273ffffffffffffffffffffffffffffffffffffffff1614156120c5576040517f08c379a00000000000000000000000000000000000000000000000000000000081526004016120bc906135f4565b60405180910390fd5b6120d18260008361248b565b6000603360008473ffffffffffffffffffffffffffffffffffffffff1673ffffffffffffffffffffffffffffffffffffffff16815260200190815260200160002054905081811015612158576040517f08c379a000000000000000000000000000000000000000000000000000000000815260040161214f90613474565b60405180910390fd5b818103603360008573ffffffffffffffffffffffffffffffffffffffff1673ffffffffffffffffffffffffffffffffffffffff1681526020019081526020016000208190555081603560008282546121b0919061386d565b92505081905550600073ffffffffffffffffffffffffffffffffffffffff168373ffffffffffffffffffffffffffffffffffffffff167fddf252ad1be2c89b69c2b068fc378daa952ba7f163c4a11628f55a4df523b3ef8460405161221591906136f4565b60405180910390a3612229836000846124e3565b505050565b600061223930611478565b15905090565b600060019054906101000a900460ff1661228e576040517f08c379a000000000000000000000000000000000000000000000000000000000815260040161228590613674565b60405180910390fd5b61229882826128db565b5050565b600060019054906101000a900460ff166122eb576040517f08c379a00000000000000000000000000000000000000000000000000000000081526004016122e290613674565b60405180910390fd5b565b600060019054906101000a900460ff1661233c576040517f08c379a000000000000000000000000000000000000000000000000000000000815260040161233390613674565b60405180910390fd5b61234461295c565b565b600060019054906101000a900460ff16612395576040517f08c379a000000000000000000000000000000000000000000000000000000000815260040161238c90613674565b60405180910390fd5b565b600060019054906101000a900460ff166123e6576040517f08c379a00000000000000000000000000000000000000000000000000000000081526004016123dd90613674565b60405180910390fd5b565b6123f0610e8b565b15612430576040517f08c379a000000000000000000000000000000000000000000000000000000000815260040161242790613554565b60405180910390fd5b6001609760006101000a81548160ff0219169083151502179055507f62e78cea01bee320cd4e420270b5ea74000d11b0c9f74754ebdbfc544b05a258612474611505565b60405161248191906133a1565b60405180910390a1565b612493610e8b565b156124d3576040517f08c379a00000000000000000000000000000000000000000000000000000000081526004016124ca90613554565b60405180910390fd5b6124de8383836129c8565b505050565b505050565b6060600060028360026124fb9190613813565b61250591906137bd565b67ffffffffffffffff811115612544577f4e487b7100000000000000000000000000000000000000000000000000000000600052604160045260246000fd5b6040519080825280601f01601f1916602001820160405280156125765781602001600182028036833780820191505090505b5090507f3000000000000000000000000000000000000000000000000000000000000000816000815181106125d4577f4e487b7100000000000000000000000000000000000000000000000000000000600052603260045260246000fd5b60200101907effffffffffffffffffffffffffffffffffffffffffffffffffffffffffffff1916908160001a9053507f78000000000000000000000000000000000000000000000000000000000000008160018151811061265e577f4e487b7100000000000000000000000000000000000000000000000000000000600052603260045260246000fd5b60200101907effffffffffffffffffffffffffffffffffffffffffffffffffffffffffffff1916908160001a9053506000600184600261269e9190613813565b6126a891906137bd565b90505b6001811115612794577f3031323334353637383961626364656600000000000000000000000000000000600f861660108110612710577f4e487b7100000000000000000000000000000000000000000000000000000000600052603260045260246000fd5b1a60f81b82828151811061274d577f4e487b7100000000000000000000000000000000000000000000000000000000600052603260045260246000fd5b60200101907effffffffffffffffffffffffffffffffffffffffffffffffffffffffffffff1916908160001a905350600485901c94508061278d9061396e565b90506126ab565b50600084146127d8576040517f08c379a00000000000000000000000000000000000000000000000000000000081526004016127cf90613414565b60405180910390fd5b8091505092915050565b6000819050919050565b6000819050919050565b6127ff81611478565b61283e576040517f08c379a0000000000000000000000000000000000000000000000000000000008152600401612835906135d4565b60405180910390fd5b8061286b7f360894a13ba1a3210667c828492db98dca3e2076cc3735a920a3ca505d382bbc60001b6127e2565b60000160006101000a81548173ffffffffffffffffffffffffffffffffffffffff021916908373ffffffffffffffffffffffffffffffffffffffff16021790555050565b6128b8836129cd565b6000825111806128c55750805b156128d6576128d48383612a1c565b505b505050565b600060019054906101000a900460ff1661292a576040517f08c379a000000000000000000000000000000000000000000000000000000000815260040161292190613674565b60405180910390fd5b8160369080519060200190612940929190612b67565b508060379080519060200190612957929190612b67565b505050565b600060019054906101000a900460ff166129ab576040517f08c379a00000000000000000000000000000000000000000000000000000000081526004016129a290613674565b60405180910390fd5b6000609760006101000a81548160ff021916908315150217905550565b505050565b6129d6816127f6565b8073ffffffffffffffffffffffffffffffffffffffff167fbc7cd75a20ee27fd9adebab32041f755214dbc6bffa90cc0225b39da2e5c2d3b60405160405180910390a250565b6060612a2783611478565b612a66576040517f08c379a0000000000000000000000000000000000000000000000000000000008152600401612a5d90613614565b60405180910390fd5b6000808473ffffffffffffffffffffffffffffffffffffffff1684604051612a8e9190613350565b600060405180830381855af49150503d8060008114612ac9576040519150601f19603f3d011682016040523d82523d6000602084013e612ace565b606091505b5091509150612af682826040518060600160405280602781526020016141a360279139612b00565b9250505092915050565b60608315612b1057829050612b60565b600083511115612b235782518084602001fd5b816040517f08c379a0000000000000000000000000000000000000000000000000000000008152600401612b5791906133f2565b60405180910390fd5b9392505050565b828054612b7390613998565b90600052602060002090601f016020900481019282612b955760008555612bdc565b82601f10612bae57805160ff1916838001178555612bdc565b82800160010185558215612bdc579182015b82811115612bdb578251825591602001919060010190612bc0565b5b509050612be99190612bed565b5090565b5b80821115612c06576000816000905550600101612bee565b5090565b6000612c1d612c188461374f565b61372a565b905082815260208101848484011115612c3557600080fd5b612c4084828561392c565b509392505050565b600081359050612c5781614146565b92915050565b600081359050612c6c8161415d565b92915050565b600081519050612c818161415d565b92915050565b600081359050612c9681614174565b92915050565b600082601f830112612cad57600080fd5b8135612cbd848260208601612c0a565b91505092915050565b600081359050612cd58161418b565b92915050565b600060208284031215612ced57600080fd5b6000612cfb84828501612c48565b91505092915050565b60008060408385031215612d1757600080fd5b6000612d2585828601612c48565b9250506020612d3685828601612c48565b9150509250929050565b600080600060608486031215612d5557600080fd5b6000612d6386828701612c48565b9350506020612d7486828701612c48565b9250506040612d8586828701612cc6565b9150509250925092565b60008060408385031215612da257600080fd5b6000612db085828601612c48565b925050602083013567ffffffffffffffff811115612dcd57600080fd5b612dd985828601612c9c565b9150509250929050565b60008060408385031215612df657600080fd5b6000612e0485828601612c48565b9250506020612e1585828601612cc6565b9150509250929050565b600060208284031215612e3157600080fd5b6000612e3f84828501612c5d565b91505092915050565b600060208284031215612e5a57600080fd5b6000612e6884828501612c72565b91505092915050565b60008060408385031215612e8457600080fd5b6000612e9285828601612c5d565b9250506020612ea385828601612c48565b9150509250929050565b600060208284031215612ebf57600080fd5b6000612ecd84828501612c87565b91505092915050565b600060208284031215612ee857600080fd5b6000612ef684828501612cc6565b91505092915050565b612f08816138a1565b82525050565b612f17816138b3565b82525050565b612f26816138bf565b82525050565b6000612f3782613780565b612f418185613796565b9350612f5181856020860161393b565b80840191505092915050565b6000612f688261378b565b612f7281856137a1565b9350612f8281856020860161393b565b612f8b81613a88565b840191505092915050565b6000612fa18261378b565b612fab81856137b2565b9350612fbb81856020860161393b565b80840191505092915050565b6000612fd46020836137a1565b9150612fdf82613a99565b602082019050919050565b6000612ff76023836137a1565b915061300282613ac2565b604082019050919050565b600061301a6014836137a1565b915061302582613b11565b602082019050919050565b600061303d6022836137a1565b915061304882613b3a565b604082019050919050565b60006130606022836137a1565b915061306b82613b89565b604082019050919050565b6000613083602c836137a1565b915061308e82613bd8565b604082019050919050565b60006130a6601d836137a1565b91506130b182613c27565b602082019050919050565b60006130c96026836137a1565b91506130d482613c50565b604082019050919050565b60006130ec602c836137a1565b91506130f782613c9f565b604082019050919050565b600061310f6038836137a1565b915061311a82613cee565b604082019050919050565b60006131326010836137a1565b915061313d82613d3d565b602082019050919050565b60006131556029836137a1565b915061316082613d66565b604082019050919050565b6000613178602e836137a1565b915061318382613db5565b604082019050919050565b600061319b602e836137a1565b91506131a682613e04565b604082019050919050565b60006131be602d836137a1565b91506131c982613e53565b604082019050919050565b60006131e16021836137a1565b91506131ec82613ea2565b604082019050919050565b60006132046026836137a1565b915061320f82613ef1565b604082019050919050565b60006132276025836137a1565b915061323282613f40565b604082019050919050565b600061324a6024836137a1565b915061325582613f8f565b604082019050919050565b600061326d602b836137a1565b915061327882613fde565b604082019050919050565b60006132906017836137b2565b915061329b8261402d565b601782019050919050565b60006132b36025836137a1565b91506132be82614056565b604082019050919050565b60006132d66011836137b2565b91506132e1826140a5565b601182019050919050565b60006132f9602f836137a1565b9150613304826140ce565b604082019050919050565b600061331c601f836137a1565b91506133278261411d565b602082019050919050565b61333b81613915565b82525050565b61334a8161391f565b82525050565b600061335c8284612f2c565b915081905092915050565b600061337282613283565b915061337e8285612f96565b9150613389826132c9565b91506133958284612f96565b91508190509392505050565b60006020820190506133b66000830184612eff565b92915050565b60006020820190506133d16000830184612f0e565b92915050565b60006020820190506133ec6000830184612f1d565b92915050565b6000602082019050818103600083015261340c8184612f5d565b905092915050565b6000602082019050818103600083015261342d81612fc7565b9050919050565b6000602082019050818103600083015261344d81612fea565b9050919050565b6000602082019050818103600083015261346d8161300d565b9050919050565b6000602082019050818103600083015261348d81613030565b9050919050565b600060208201905081810360008301526134ad81613053565b9050919050565b600060208201905081810360008301526134cd81613076565b9050919050565b600060208201905081810360008301526134ed81613099565b9050919050565b6000602082019050818103600083015261350d816130bc565b9050919050565b6000602082019050818103600083015261352d816130df565b9050919050565b6000602082019050818103600083015261354d81613102565b9050919050565b6000602082019050818103600083015261356d81613125565b9050919050565b6000602082019050818103600083015261358d81613148565b9050919050565b600060208201905081810360008301526135ad8161316b565b9050919050565b600060208201905081810360008301526135cd8161318e565b9050919050565b600060208201905081810360008301526135ed816131b1565b9050919050565b6000602082019050818103600083015261360d816131d4565b9050919050565b6000602082019050818103600083015261362d816131f7565b9050919050565b6000602082019050818103600083015261364d8161321a565b9050919050565b6000602082019050818103600083015261366d8161323d565b9050919050565b6000602082019050818103600083015261368d81613260565b9050919050565b600060208201905081810360008301526136ad816132a6565b9050919050565b600060208201905081810360008301526136cd816132ec565b9050919050565b600060208201905081810360008301526136ed8161330f565b9050919050565b60006020820190506137096000830184613332565b92915050565b60006020820190506137246000830184613341565b92915050565b6000613734613745565b905061374082826139ca565b919050565b6000604051905090565b600067ffffffffffffffff82111561376a57613769613a59565b5b61377382613a88565b9050602081019050919050565b600081519050919050565b600081519050919050565b600081905092915050565b600082825260208201905092915050565b600081905092915050565b60006137c882613915565b91506137d383613915565b9250827fffffffffffffffffffffffffffffffffffffffffffffffffffffffffffffffff03821115613808576138076139fb565b5b828201905092915050565b600061381e82613915565b915061382983613915565b9250817fffffffffffffffffffffffffffffffffffffffffffffffffffffffffffffffff0483118215151615613862576138616139fb565b5b828202905092915050565b600061387882613915565b915061388383613915565b925082821015613896576138956139fb565b5b828203905092915050565b60006138ac826138f5565b9050919050565b60008115159050919050565b6000819050919050565b60007fffffffff0000000000000000000000000000000000000000000000000000000082169050919050565b600073ffffffffffffffffffffffffffffffffffffffff82169050919050565b6000819050919050565b600060ff82169050919050565b82818337600083830152505050565b60005b8381101561395957808201518184015260208101905061393e565b83811115613968576000848401525b50505050565b600061397982613915565b9150600082141561398d5761398c6139fb565b5b600182039050919050565b600060028204905060018216806139b057607f821691505b602082108114156139c4576139c3613a2a565b5b50919050565b6139d382613a88565b810181811067ffffffffffffffff821117156139f2576139f1613a59565b5b80604052505050565b7f4e487b7100000000000000000000000000000000000000000000000000000000600052601160045260246000fd5b7f4e487b7100000000000000000000000000000000000000000000000000000000600052602260045260246000fd5b7f4e487b7100000000000000000000000000000000000000000000000000000000600052604160045260246000fd5b6000601f19601f8301169050919050565b7f537472696e67733a20686578206c656e67746820696e73756666696369656e74600082015250565b7f45524332303a207472616e7366657220746f20746865207a65726f206164647260008201527f6573730000000000000000000000000000000000000000000000000000000000602082015250565b7f5061757361626c653a206e6f7420706175736564000000000000000000000000600082015250565b7f45524332303a206275726e20616d6f756e7420657863656564732062616c616e60008201527f6365000000000000000000000000000000000000000000000000000000000000602082015250565b7f45524332303a20617070726f766520746f20746865207a65726f20616464726560008201527f7373000000000000000000000000000000000000000000000000000000000000602082015250565b7f46756e6374696f6e206d7573742062652063616c6c6564207468726f7567682060008201527f64656c656761746563616c6c0000000000000000000000000000000000000000602082015250565b7f45524332303a20696e73756666696369656e7420616c6c6f77616e6365000000600082015250565b7f45524332303a207472616e7366657220616d6f756e742065786365656473206260008201527f616c616e63650000000000000000000000000000000000000000000000000000602082015250565b7f46756e6374696f6e206d7573742062652063616c6c6564207468726f7567682060008201527f6163746976652070726f78790000000000000000000000000000000000000000602082015250565b7f555550535570677261646561626c653a206d757374206e6f742062652063616c60008201527f6c6564207468726f7567682064656c656761746563616c6c0000000000000000602082015250565b7f5061757361626c653a2070617573656400000000000000000000000000000000600082015250565b7f45524331393637557067726164653a20756e737570706f727465642070726f7860008201527f6961626c65555549440000000000000000000000000000000000000000000000602082015250565b7f496e697469616c697a61626c653a20636f6e747261637420697320616c72656160008201527f647920696e697469616c697a6564000000000000000000000000000000000000602082015250565b7f45524331393637557067726164653a206e657720696d706c656d656e7461746960008201527f6f6e206973206e6f742055555053000000000000000000000000000000000000602082015250565b7f455243313936373a206e657720696d706c656d656e746174696f6e206973206e60008201527f6f74206120636f6e747261637400000000000000000000000000000000000000602082015250565b7f45524332303a206275726e2066726f6d20746865207a65726f2061646472657360008201527f7300000000000000000000000000000000000000000000000000000000000000602082015250565b7f416464726573733a2064656c65676174652063616c6c20746f206e6f6e2d636f60008201527f6e74726163740000000000000000000000000000000000000000000000000000602082015250565b7f45524332303a207472616e736665722066726f6d20746865207a65726f20616460008201527f6472657373000000000000000000000000000000000000000000000000000000602082015250565b7f45524332303a20617070726f76652066726f6d20746865207a65726f2061646460008201527f7265737300000000000000000000000000000000000000000000000000000000602082015250565b7f496e697469616c697a61626c653a20636f6e7472616374206973206e6f74206960008201527f6e697469616c697a696e67000000000000000000000000000000000000000000602082015250565b7f416363657373436f6e74726f6c3a206163636f756e7420000000000000000000600082015250565b7f45524332303a2064656372656173656420616c6c6f77616e63652062656c6f7760008201527f207a65726f000000000000000000000000000000000000000000000000000000602082015250565b7f206973206d697373696e6720726f6c6520000000000000000000000000000000600082015250565b7f416363657373436f6e74726f6c3a2063616e206f6e6c792072656e6f756e636560008201527f20726f6c657320666f722073656c660000000000000000000000000000000000602082015250565b7f45524332303a206d696e7420746f20746865207a65726f206164647265737300600082015250565b61414f816138a1565b811461415a57600080fd5b50565b614166816138bf565b811461417157600080fd5b50565b61417d816138c9565b811461418857600080fd5b50565b61419481613915565b811461419f57600080fd5b5056fe416464726573733a206c6f772d6c6576656c2064656c65676174652063616c6c206661696c6564a26469706673582212201cbae342c7abbb1ba6c440dcad85ae7df6444424ecfa69126d75e4931c7f77ab64736f6c63430008040033",
  "linkReferences": {},
  "deployedLinkReferences": {}
}